:080000000C949B010C9400001C
:100008000C9400000C9400000C9400000C94000068
:100018000C9400000C9400000C9400000C94000058
:100028000C9400000C9400000C9400000C94000048
:100038000C9400000C9400000C9400000C94000038
:100048000C9400000C9400000C940000050720603C
:1000580000000000000000040404040400040A0A6C
:100068000A000000000A0A1F0A1F0A0A041E050ED9
:10007800140F0403130804021918060905021509C8
:100088001606040200000000080402020204080226
:10009800040808080402000A041F040A00000404F3
:1000A8001F040400000000000604020000001F00F6
:1000B800000000000000060600001008040201000D
:1000C8000E11191513110E0406040404040E0E1162
:1000D800100804021F1F08040810110E080C0A0952
:1000E8001F08081F010F1010110E0C02010F11112B
:1000F8000E1F1008040202020E11110E11110E0E2D
:1001080011111E1008060006060006060000060665
:10011800000604021008040204081000001F001F53
:100128000000010204080402010E11100804000472
:100138000E11101615150E0E1111111F11110F1198
:10014800110F11110F0E11010101110E07091111E3
:100158001109071F01010F01011F1F0101070101FB
:10016800010E11010119110E1111111F1111110E9A
:1001780004040404040E1C080808080906110905EB
:10018800030509110101010101011F111B151111BD
:100198001111111113151911110E11111111110E3F
:1001A8000F11110F0101010E1111111509160F116F
:1001B800110F0509111E01010E10100F1F04040470
:1001C8000404041111111111110E11111111110A48
:1001D8000411111115151B1111110A040A1111111D
:1001E800110A040404041F10080402011F1C04045B
:1001F8000404041C00010204081000070404040499
:100208000407040A11000000000000000000001F9D
:100218000204080000000000000E101E111E01015B
:100228000D1311110F00000E0101110E10101619F7
:1002380011111E00000E111F010E0C1202070202FE
:100248000200001E111E100C01010D1311111104E2
:1002580000060404040E08000C080809060202122D
:100268000A060A120604040404040E00000B1515FD
:10027800111100000D1311111100000E1111110EB2
:1002880000000F110F0101000016191E10100000C8
:100298000D1301010100000E010E100F02020702EA
:1002A80002120C0000111111191600001111110A87
:1002B800040000111115150A0000110A040A1100A2
:1002C8000011111E100E00001F0804021F0804046C
:1002D80002040408040404040404040204040804D2
:1002E8000402021508000000001F11111111111F4E
:1002F800000103070F1F3F7FFF00564F4C54414733
:1003080045203D00322E350001002D4E414E00495A
:100318004E4600000A006002020304006A020C0351
:100328000A006E0202030100950210030000F8940F
:10033800EE27ECBBF1E0FBBFEBBFE5BFF8E1F1BD99
:10034800E1BD8DE0A2E0BB27ED938A95E9F780E057
:1003580098E0A0E6ED930197E9F7ECE1F3E08591E9
:100368009591009761F0A591B59105901590BF0101
:10037800F00105900D920197E1F7FB01F0CFEFE551
:10038800EDBFE8E0EEBFC0E6D2E00C94D901AA9335
:10039800E881E7B98BE18A95F1F7369A349BFECF6D
:1003A800349AE4B1F5B10C94A203A29720E030E0AE
:1003B800E4E5F0E0E883F983DE010E941E03E0E053
:1003C800E7B9E5E8E6B90E943209EEE6EA93A0E665
:1003D800B2E00E946F07A1E00E946709EA8BFB8BDD
:1003E8006C8B7D8BA6E00E946709EE87FF87688B80
:1003F800798BA2E00E947E09ACE8B8EE85ED9BE31C
:100408000E94300BEA87FB876C877D87A3E00E94F8
:100418007E09A4E4BAE288EA9CE30E94300BEE83EA
:10042800FF8368877987A4E00E947E09A0E9BEE37C
:100438008AEF9DE30E94300BEE8BFF8B688F798FDC
:10044800A0E0A5DF8F01D801EFEFF3E00E94E40BF5
:10045800A5E0B0E00E94CC0B8F010230E0E01E075F
:1004680044F0E2EDEA93EEE6EA93AAE6B2E00E94EF
:100478006F07A0E00E947E09EE8FFF8F68A379A323
:10048800A5E00E947E09EA8FFB8F6C8F7D8FEE8D31
:10049800FF8D68A179A10E9485097F936F93FF93CF
:1004A800EF93AA89BB898C899D890E949809AF918D
:1004B800BF918F919F910E94E00AEE8FFF8F68A3F2
:1004C80079A3EA8DFB8D6C8D7D8D0E9485097F93C4
:1004D8006F93FF93EF93AE85BF85888999890E94B2
:1004E8009809AF91BF918F919F910E94E00AEA8F7E
:1004F800FB8F6C8F7D8FEE89FF89688D798D0E94C7
:100508006D0ADF010E94360A0E949F09AF8DB8A1CB
:1005180089A19AA10E94AE090E949F09AB8DBC8D4A
:100528008D8D9E8D0E94AE092F5F3F4FEE81FF811A
:1005380068857985D9010E94BF0B0E94FD0B0E9436
:10054800300BDF01CB01E0E0F0E060E773E40E94EC
:100558007E0B60F020E030E00E94DB030E9432094D
:10056800EEE6EA93AEE6B2E00E946F0734CFFFCF23
:10057800AA9391989398EFEFE4BBE881E5BB00005C
:100588000000000000000000000000000000939A36
:1005980000000000919AD2C01A9391989298E0E0D6
:1005A800E4BB0000000000000000000000000000A4
:1005B800000013B3929A919AE12F19910895909A95
:1005C800EBDFE370E330E1F70895AA93F8DF909842
:1005D800A8810E94BC02B2C0F2DF9098DDDF0895C6
:1005E800AA93EDDFA8810E94BC02A8C0BA93AA937F
:1005F800A881EBDFA981E9DFA4E2F2DF0C94B70858
:10060800AA93A881EEE1EA9FF001E052FE4FDF01D4
:10061800E981E695E695E695F0E0AE0FBF1FE6DFC7
:10062800A5ECDEDFD9DF0C94B708AA93A881CDDF4B
:10063800A4EC83C0BA93AA93899A919A8A9A929AB7
:100648008B9A939A889A8C9A9498AAE0B0E00E9420
:10065800360A949AAAE0B0E00E94360AA0E00E9406
:10066800B909A0E4BDDFAEE10E94B909A1E4B8DF91
:10067800A0EEABDFA1E0A9DFA2E4B2DFAEE10E9409
:10068800B909A3E4ADDFA3E00E94B909A2E2A8DF9B
:10069800A0E8A6DFA1E049D0E1E0E0937802E0E03D
:1006A800E0937902E1E0E0937E02E0937F02E88143
:1006B800F9813097A9F0A881B9810E94F70BE093DE
:1006C8007C02F0937D0212960E94F70BE093910250
:1006D800F0939202A881B98114960E94F70B0AC080
:1006E800E0E0F0E0E0937C02F0937D02E093910279
:1006F800F0939202E0939302F0939402E1E0E09386
:100708008002EFEFE0938102E1E0E0938802E9E8FC
:10071800F2E0FA93EA93EFEFEA93A8E0B0E00E94E0
:100728009E0845D0E1E00C94B708AA93E881E03030
:1007380011F0ECE901C0E0E9AE2F52DF21960895EF
:100748001A930A93A0E0B0E051DF00EE11E0F8013F
:1007580001501040309729F0A0E037DFA0EC40DFCF
:10076800F6CFE0E0EA93A0E0E4D309911991089567
:100778000E94300C30E0E0917902E03009F03FEF60
:10078800A0EEB1E033DF00E01FE0F80101501040B7
:10079800309729F0A32F19DFA0EC22DFF6CFE0E095
:1007A800EA93A0E0C6D30E94370C0C941D09C8DF59
:1007B800DFDF0895AA931A930A93AC81A03F18F437
:1007C800AB81A03820F0198108810C94AC08EC8129
:1007D800EA93AC8115DF1E2FEC81E770A7E00E9439
:1007E800090CEA1BA1E00E94AA0B0E2FEA81E03057
:1007F80011F0102B03C0E02FE0951E23A12F15DF69
:10080800198108810C94AC08AA931A93ED81EA9394
:10081800AD810E94BE091E2FE981E73011F0E83052
:1008280039F4EB81EA93AA810E94B908EB830EC0E0
:10083800E33021F4EB81E095EB8302C0E03009F46A
:1008480002C0E93009F402C0EA3021F4EA81E095F7
:100858001E2302C0E23029F4EA81AB81EA231E2B71
:100868000EC0E13029F4EA81AB81EA231E2707C0D4
:10087800E43029F4EA81E095AB81EA2B1E23A12F0D
:100888000E941F09AE2FD1DE188126960895AA93DB
:1008980027970E942E0CAC89A03F48F4AB89A0385A
:1008A80030F4AA89A03019F0A989A03009F43EC40F
:1008B800EA89E695E695E6952E2F2887EA89E77076
:1008C800EB87E03019F0E885EF5FE8870A89AC89A3
:1008D800BB27EA89F0E0AE0FBF1FA13FE0E0BE07EB
:1008E80020F0AC89E0EFEA1BEA8BE989EA87AB895B
:1008F800BB27E989F0E0AE0FBF1FA138E0E0BE07D3
:1009080020F0AB89E0E8EA1BE98BED85E63009F0D9
:100918004EC0E889E13009F409C4E33039F4E091C4
:100928009302F0919402309709F400C4EB85E0300B
:1009380019F4AA890A17D9F0E22FAE85BF85F0E02D
:100948000E94C3091989103091F0322F3F933F5FFD
:10095800E885AF91AE1718F40E94C809F7CFE22FC7
:10096800AE81BF81F0E00E94C3091150ECCF298904
:10097800EA85E217D9F0A22FBB27E885F0E00E94AC
:10098800C40BAE85BF850E94C3092F932F5FEA85EC
:10099800AF91AE1758F430E03F933F5FE885AF91D1
:1009A800AE1718F40E94C809F7CFEFCF0DC0E93091
:1009B80011F4E0E003C0EA3039F4EFEFEA87EA9394
:1009C800AE850E94B908EA87EC89E7703E2FE8E017
:1009D800E31B2E2F522FAA892A1710F05A890EC00E
:1009E800303061F0432FAA89A93018F4EA89E21B54
:1009F8004E2FE42FF0E0E850FD4F44913A93A52F95
:100A08000E94AE085E2FAB852A1718F4EB85E21B0F
:100A1800EB87EB85F0E0E850FD4F04900C86E98900
:100A2800E150E98BEF5F09F4E9C010E00C89EE852D
:100A3800FF85EE83FF83303009F496C04B87AD8580
:100A4800A63009F055C0EA891E1708F050C00A936D
:100A5800AC890E94BE09E523AE2FE32F0E94B20B9A
:100A6800E9870E94D5091E2EE32FA52F0E94B20BFD
:100A7800E095E121A985EA2BE987AA892A1730F4AC
:100A8800E02FE695E695E695ED3140F00E94DD0908
:100A9800FA93EA93AC850E94000929C0AA89A11B90
:100AA800A83010F4EC85EB87085F0A93AC890E94A4
:100AB800BE09AB85EA23AE2FE22F0E94AA0BEA8774
:100AC800E22FAB850E94AA0BE095A985EA23AA85A7
:100AD800EA2BEA870E94DD093196EF83F887319780
:100AE800FA93EA93AD850E940009185FACCF3BC02A
:100AF800EA891E17C0F5ED85E93011F0EA3009F4EE
:100B08000DC00E94DD093196EF83F887319766277B
:100B18007727DF01CB010E94E108EA870A93EC8975
:100B2800EA93E32FAC850E94AA0BEA935A93A9890A
:100B38006BDEAA892A17B8F4E02FE695E695E695C4
:100B4800ED3188F4A11BA83010F4EC85EB87085F21
:100B58000A93EC89EA93E22FAC850E94B20B0E94BB
:100B6800E209185FC5CF3EC05B87EA891E17D0F53A
:100B7800AA89A11BA83010F4EC85EB87ED85E93034
:100B880011F0EA3009F409C0AD85A63019F4AB8537
:100B9800AF3F19F00E94D509EA87AD85A630A1F4C8
:100BA8000E94DD09FA93EA930A93AF890E94BE096D
:100BB800AE85EA230E2EEE85E095AD85EA23E02981
:100BC800AE2F0E94000906C00A93EC89EA93EC85CF
:100BD8000E94E209EE81FF813196EE83FF83085F70
:100BE800185FC3CFEB89EF5FEB8BE885AE85BF85D8
:100BF800F0E0EA0FFB1FEE87FF8711CF97C2AA9399
:100C0800A981EEE1EA9FF001DF01EA81F0E0AE0F91
:100C1800BF1FECDCA881A03818F4E881E052E88313
:100C2800A881D3DCA4ECDCDC0C94FE080E94E80963
:100C380024F0E0E0F0E00C94B708A881B981A03F67
:100C4800E0E0BE0724F0EFEEF0E00C94B708E8818E
:100C5800F9810C94B7080E94E80924F0E0E0F0E07C
:100C68000C94B708A881B981A038E0E0BE0724F049
:100C7800EFE7F0E00C94B708E881F9810C94B70825
:100C8800AA93E981EA93E981EA93A091780292DD37
:100C98000C94B708BA93AA9323970E94EF098F017F
:100CA800002E012A19F4E0E0F0E068C00E94F6097D
:100CB8000F820E94F6090E820E94F6090886EB85CB
:100CC800A885EA1718F4E0E0F0E058C0F8010F5FD3
:100CD8001F4F5491A885BB27EE27A50FBE1FEB8594
:100CE800F0E0EA17FB0718F0E0E0F0E047C0EF811A
:100CF800E030E1F0A985BA85EC93E695E695E695AE
:100D08004E2FEF81E77009F04F5FA885EB85EA1B4E
:100D1800F0E0DF01EE81F0E00E94C40BDF01E42F78
:100D2800F0E00E94C40BE00FF11F28C09801E52FE6
:100D3800F0E00E0F1F1FA885AF5FA887A150EB85B5
:100D4800AE17B0F4F901E491E695E695E6954E2FD5
:100D5800F9012F5F3F4FE491E77009F04F5FAE81D3
:100D6800BB27E42FF0E00E94C40B0E0F1F1FE3CF38
:100D7800F901E491A985BA85EC93F8010E94350C34
:100D88002C960895E0E0E0937A02A0917B02BB27BD
:100D98000E94FB09F0E0AE0FBF1FE0917F02F0E078
:100DA800AE0FBF1F0E94020A0895AA9321970E94BE
:100DB800EF09309709F452C0AF81AA3009F44BC04B
:100DC800EF81EA93DE01179665DFAF01309709F4EA
:100DD8007EC0E0917E02AE81EA0F3E2FA0917A029A
:100DE800BB27F0E0EA0FFB1F8F01013FE0E01E0781
:100DF80018F0032F1127C6DF0E94070AE885EA9337
:100E08000E94FB09EA93E1E0EA935A934A93A7E028
:100E18000E940E0AAE81EA0FEA93E0917B02EA9300
:100E2800E0917E02EA930E94FB090E94130A0E9445
:100E38000E0AEA93A0917B020E94FB09EA0FEA934B
:100E48003A93E0917F020E94130A21DDE0EFF0E07F
:100E5800E017F10711F496DF3AC037C0AF81AA3026
:100E680059F1E0917A02E695E695E6953E2FE091F4
:100E78007B02E695E695E6952E2F3A932A93A98567
:100E8800BEDEE32FEE0FEE0FEE0FE0937A02E22FB5
:100E9800EE0FEE0FEE0FE0937B020E94070AE8E0E8
:100EA800EA930E94130A0E940E0AF0E038968F0116
:100EB800003FE0E01E0748F000E010E0E0917B0210
:100EC800F0E03896DF010E94020A00937A020E943D
:100ED800350C28960895BA93AA931A93EC81EA934D
:100EE800AC8127D0A981BA81ED91A983BA831E2F3D
:100EF800E03019F0A12F59DFF5CF188129C1AA9345
:100F0800EA81EA93EA81EA93E0918102AA81EA23DD
:100F180019F0E091780202C0E0917902AE2F4ADC24
:100F2800E881EE0FE883E03011F4E1E0E883E8813E
:100F380061C1AA93A981BB2779DEE0937A02A881CF
:100F4800BB270E94020A0FC1AA932B970E942E0C5E
:100F5800AC89BB276BDEEC8BAA89BB2767DEEA8BE3
:100F6800AB89BB2778DEEB8BA989BB2774DEE98BBD
:100F7800EA89E0937A02E989E0937B02E1E0E88775
:100F8800E989AB89EA1771F51C89AA891A1731F41E
:100F98001A93EC89EA93A1E0B2DFC8C0AA891A17AC
:100FA80030F4EA89E11B0E2F41E050E006C0AA891F
:100FB800E12FEA1B0E2F4FEF5FEF3B89E0E0EE8356
:100FC8000E941C0A38F41A933A933395AA8597DF3E
:100FD800EF83F6CFEF81E887140FE02F0150E03060
:100FE80061F7A4C0EA89AC89EA1739F53B89A98970
:100FF8003A1730F4E989E31B2E2FE1E0F0E006C050
:10100800A989E32FEA1B2E2FEFEFFFEFED87FE876D
:101018001C89E0E0EE830E941C0A30F41A931395B1
:101028000E94240AEF83F7CFEF81E887ED853E0F12
:10103800E22F2150E03061F779C0E0E0EE830E94B2
:101048001C0A08F073C01C893B89E1E02E2F0E2F83
:10105800AA89BB27EC89F0E0AE1BBF0BAD01552375
:101068002AF40FEFFA010E949E0BAF01FA01EE0F6E
:10107800FF1FEF87F88BA989BB27EB89F0E0AE1B30
:10108800BF0BAD87BE87AE85AA233AF42FEFED8557
:10109800FE850E949E0BED87FE87ED85FE85EE0F8F
:1010A800FF1FEB87FC871A933A93A1E028DFE887B4
:1010B800E0E0E987EA87AD85BE854A175B07BCF0A3
:1010C800100FEB85FC850E94280AA985BA854A1766
:1010D8005B072CF4320FAF85B8890E942F0A1A9348
:1010E8000E94240AE887EA89E11751F718C0320FED
:1010F800EF85F8890E94280AED85FE85A985BA85BD
:10110800EA17FB072CF4100FAB85BC850E942F0A49
:101118001A930E94240AE887E989E31741F7EB89C3
:10112800EF5FEB8BE989EF5FE98B89CF0E94350C84
:1011380065960895BA93AA93B981A881109631F05B
:10114800FC81EB816A8161931197E9F7EB81FC815E
:1011580025960895AA93E881F0E0E850FD4FA49100
:10116800E9810E94AA0B22960895AA931A93E9810D
:10117800E73011F0EA3019F41091780209C0E9302B
:1011880019F41091790204C0E830A1F41091880292
:10119800E0917902E03049F0103019F0EFEF188152
:1011A80029C0EA81E095188125C0103019F4E0E0E3
:1011B800188120C0EA8118811DC0BA93AA93EA81D8
:1011C800E13021F4E881F981E49114C0E23029F496
:1011D800A881B9810E940D0C0DC0E33041F4A881AB
:1011E800B981E0919102F0919202099503C0A8811A
:1011F800B981EC9123960895AA93EB81E03029F404
:10120800E881A981BA81EC9314C0E23031F4E88115
:10121800A981BA810E94190C0CC0E33051F4E9810C
:10122800FA81FA93EA93AA81E0919302F0919402E9
:10123800099524960895AA93A991A0FBE7F9A1FB23
:10124800E6F9A2FBE5F9A3FBE4F9A4FBE3F9A5FBA6
:10125800E2F9A6FBE1F9A7FBE0F90895E0E0EA93DB
:10126800ECE3EA93EFEEEA93ACE30E94A807EFE61B
:10127800EA93E0E0EA93EFE6EA93A6E90E94A8077A
:10128800E0E0EA93EA93EA93A6E90E94A807EFEE62
:10129800EA93E0E0EA93EA93A0E00E94A807E0E07E
:1012A800EA93EFEEEA93EA93A6E90E94A807EFEE25
:1012B800EA93E0E0EA93EFEEEA93AFEE0E94A80724
:1012C800E6E9EA9308950E94CB01662777270E94F2
:1012D800A60AA3EABAEA87E19DE30E94300BDF0180
:1012E800CB01E0E0F0E060E87FE30E94000C0E94A0
:1012F800D90A08950E94CB01662777270E94A60A7B
:101308000895AA85BB858C859D850E94300BAAE02F
:10131800B8E280EA9BE30E94300BA0E0B0E080EAEC
:1013280090E40E94300B0895E0E0F0E060E870E49B
:101338000E94300B0895F901AE81BF818885998597
:101348000E94BA0B0E94A60A0E94300B0E946D0AE6
:10135800EA930895E0E0F0E066E173E40E94D90AB8
:101368000E946D0AAE2F0C9444060E94E902A0E088
:101378000C94E9020E940403AE2F0C941F09EA0F93
:10138800FB1FEE83FF830895E889EA93EF81F885D0
:101398003196EF83F8873197FA93EA93A0E00C949B
:1013A8000009E889EA93AF81B885882799270C94C2
:1013B800E108E889EA93EF81F8850895EA93EE85D4
:1013C800EA93A9890C940804BA93AA93A881B981CD
:1013D8000E942A0C08950E942E0CE0917C02F09144
:1013E8007D020895F8010F5F1F4F04900895E09162
:1013F8007C02F0917D023196E49108950E942F06B7
:10140800E0937B020895E0917A02EA93E0917B02EF
:10141800EA9308950E944B04E0917A020895EA93B2
:10142800E0E0EA93E0E0F0E0FA93EA93A9E00895B7
:10143800AE81AF5FAE83A150E0918002AE170895F0
:101448003A93AA850C948307A985BA85EA0FFB1FEE
:10145800E987FA870895E985FA85EA1BFB0BE9878E
:10146800FA870895109639F080ED97E00197F1F723
:10147800A8951197C9F70895552342F4503811F4E7
:10148800E0FF04C03196691F791F6BF050E85727B9
:1014980011F45F93CFC05F3F31F0660F000C579592
:1014A8006795752F08955F9300200AF0CFC0C8C0D4
:1014B80050E8192E1522880F991F9527550F8795E3
:1014C80050E8072E0522660F771F7527550F679579
:1014D8000895689401C0E8945F93F2DF703818F0BB
:1014E8007F3F08F4A7C056E1571BAAF4519558301E
:1014F8000EF4593030F0EFEFFFEF6FEF7FE777F939
:101508001AC077275523B9F0EE0FFF1F661F771F04
:101518005A95D1F710C07727583028F0EF2FF62FBB
:10152800672F5850F9CF552331F076956795F79581
:10153800E7955A95D1F700200AF400D15F910895F4
:10154800689401C0E894309760407040B1F000247E
:1015580026F0772312F40094F1D0172E7EE11120A3
:1015680032F07A95EE0FFF1F661F111CF9CFEF2F8F
:10157800F62F612D5F938ADF5F9108954F93AF0136
:10158800FD01DA01AB01BC01CA01402D012C142E6A
:101598004F910895EA0FFB1F681F0895E095F09595
:1015A8006095EF5FFF4F6F4F08955F9381DF90382D
:1015B80071F150E8152604C05F937ADF903839F14D
:1015C800703821F1572F591B2BF112F4D7DFFACFBE
:1015D800583118F0AA27BB278827583028F0AB2F96
:1015E800B82F88275850F9CF552329F08695B795F5
:1015F800A7955A95D9F7502D512572F0CBDF38F4BD
:101608006795F795E795739513F420C0B7DF3EDF2C
:101618005F910895D8F7FBCFEA1BFB0B680B51F0DD
:1016280010F40094BBDF662392F3EE0FFF1F661FD2
:101638007A95CBF7EE27FF27662777275F910895DE
:10164800EFEFFFEF6FE77FEF5F910895EFEFFFEFA9
:101658006FE77FE75F9108955F932ADF703851F352
:10166800903841F301240894791F23F41CF30020D7
:101678003AF3ECCF0F921F932F933F934F93112779
:1016880022279927689FA0018F9F302D410D591F50
:101698006B9F300D411D591F8E9F27D0BF9F25D0AE
:1016A8006A9F23D0BE9F1DD0AF9F1BD0AE9F110D48
:1016B800291F391F491F591FE32FF42F652F522F58
:1016C8004F913F912F911F910F9066232AF0550F4C
:1016D800EE1FFF1F661F02C073954BF2CDDE5F91B0
:1016E8000895100D211D391F02C0200D311D491FFD
:1016F800591F089599239AF0772342F0971748F0D5
:1017080029F4AE17BF07860720F031F09894889423
:1017180008959894089408951894889408957723C0
:10172800C2F7971798F3A9F7EA17FB07680788F332
:1017380099F3ECCFF195E195F0400895F095609517
:101748007095E195FF4F6F4F7F4F0895EE230E2E52
:10175800EA2F19F0EE0F0A94E9F70895EE230E2EFA
:10176800EA2F19F0E6950A94E9F708956F2F660FA6
:10177800660B762F08958B2F880F880B982F089566
:10178800FA9FF02DEB9FF00DEA9FE02DF10D0895E3
:101798001CD0F6DF0EF4CEDF08950024112490E16A
:1017A800AA0FBB1F001C111C0E1A1F0A18F40E0EDC
:1017B8001F1E01C0A1609A9599F7FD01D0010895F7
:1017C80004D0EBDF0EF4B6DF0895E894F7FF02C00B
:1017D800B1DF6894B7FF06C0A095B095119600F8E0
:1017E800039400FA0895ED91FC9111970895689477
:1017F80001C0E89401D0A7DE182E862F612D192E7E
:10180800972F712D1B2EBF2FF12D1A2EAE2FE12DE4
:101818000895E199FECFFF93FFB7F894AEBBBFBB25
:10182800E09AEDB3FFBFFF910895E19B02C0A89530
:10183800FCCF9FB7F894AEBBBFBBE09A8DB3E81757
:1018480019F0EDBBE29AE19A9FBF089500240A16A9
:101858000B0608955A934A933A932A931A930A9334
:1018680008955D814C813B812A8119810881089501
:00000001FF
